:10000000C8C00000E2C00000E0C00000DEC0000088
:10001000DCC00000DAC00000D8C00000D6C000007C
:10002000D4C00000D2C0000045C60000CEC0000011
:10003000CCC00000CAC00000C8C00000C6C000009C
:10004000C4C00000C2C00000C0C00000BEC00000AC
:10005000BCC00000BAC00000B8C00000B6C00000BC
:10006000B4C000004EC20000B0C00000AEC000002E
:10007000ACC00000AAC00000A8C00000A6C00000DC
:10008000A4C00000A2C00000A0C000009EC00000EC
:100090009CC000009AC0000098C0000096C00000FC
:1000A00094C0000092C0000090C000006364696EBC
:1000B0006F70737578585B00240350004F004B003D
:1000C0004B0045004E00200043004F004E005400FE
:1000D00052004F004C004C004500520000001C0331
:1000E00048004F0052004900200043004F002E00FE
:1000F0002C004C00540044002E00000004030904AE
:100100000902290001010080FA090400000203002D
:1001100000000921110100012256000705020340D9
:1001200000050705810340000512010002000000E0
:10013000400D0F920000010102000105010905A117
:1001400001150025013500450175019510050919B6
:10015000012910810205012507463B01750495011F
:1001600065140939814265009501810126FF004629
:10017000FF000930093109320935750895048102FB
:100180000600FF0920950181020A212695089102A7
:10019000C00011241FBECFEFDAE0DEBFCDBF11E0FB
:1001A000A0E0B1E0E0EDF8E102C005900D92A439C5
:1001B000B107D9F721E0A4E9B1E001C01D92A03E4A
:1001C000B207E1F7A2D20C94660C1ACFE5E9F1E090
:1001D0001182108280E8838384838583868388E00C
:1001E00082830895EF92FF920F931F93CF93DF9333
:1001F000CDB7DEB768970FB6F894DEBF0FBECDBFA0
:100200008E010F5F1F4F1F930F937E0121E1E20EBE
:10021000F11CFF92EF9221E031E03F932F939F93E7
:100220008F930E944A0967E071E0C701D7D70FB6E4
:10023000F894DEBF0FBECDBF892B59F41092000198
:1002400062E171E0C801CAD7892B79F581E090E0BD
:1002500034C06EE071E0C701C1D7892B21F481E081
:1002600080930001EDCF61E171E0C701B7D7892B21
:1002700011F482E0F5CF64E171E0C701AFD7892BBB
:1002800011F483E0EDCF67E171E0C701A7D7892BB7
:1002900011F484E0E5CF6AE171E0C7019FD7892BB3
:1002A00011F485E0DDCF86E0DBCF6EE171E0C801BF
:1002B00095D7892BA9F482E090E09093BE018093BA
:1002C000BD0180910001823009F40CC108F0DFC04B
:1002D000882309F4E7C0813009F4FFC077DFF0C05C
:1002E00060E271E0C8017AD7892B19F484E090E0CC
:1002F000E4CF64E571E0C80171D7892B19F488E077
:1003000090E0DBCF63E271E0C80168D7892B19F474
:1003100080E190E0D2CF62E971E0C8015FD7892B1C
:1003200019F480E290E0C9CF62E271E0C80156D7CB
:10033000892B19F480E490E0C0CF65E271E0C80138
:100340004DD7892B19F480E890E0B7CF68E271E0CF
:10035000C80144D7892B19F480E091E0AECF6EE25A
:1003600071E0C8013BD7892B19F480E092E0A5CF5A
:1003700063E371E0C80132D7892B19F480E094E07F
:100380009CCF6AE371E0C80129D7892B19F480E07A
:1003900098E093CF61E471E0C80120D7892B19F46C
:1003A00080E090E18ACF66E471E0C80117D7892B1D
:1003B00019F480E090E281CF6EE471E0C8010ED7BD
:1003C000892B29F41092BE011092BD017ACF62E50B
:1003D00071E0C80103D7892B19F48FEF90E06DCF3E
:1003E000C801DFD6181619061CF4C801DAD665CF85
:1003F00066E571E0C801F2D6892B21F36AE571E068
:10040000C801ECD6892B09F421CF6BE671E0C80155
:10041000E5D6892B09F44FCF64E671E0C801DED63A
:10042000892B19F483E090E048CF61E771E0C801BF
:10043000D5D6892B09F45ACF68E771E0C801CED62A
:10044000892B19F485E090E038CF6FE771E0C8019F
:10045000C5D6892B19F486E090E02FCF64E871E0CF
:10046000C801BCD6892B19F487E090E026CF6DE84F
:1004700071E0C801B3D6892B31F480910001853039
:1004800009F061CF3CCF86E0809300011ACF843021
:1004900099F168F1853009F021CF8091BD018093F9
:1004A00097010EC080919501909196012091BD0118
:1004B0003091BE01822793279093960180939501F6
:1004C00068960FB6F894DEBF0FBECDBFDF91CF9117
:1004D0001F910F91FF90EF9008958091BD0180933F
:1004E0009801EECF8091BD0180939901E9CF809171
:1004F000BD0180939A01E4CF8091BD0180939B015F
:10050000DFCF1F920F920FB60F9211241F932F93DC
:100510003F934F935F936F937F938F939F93AF938B
:10052000BF93CF93DF93EF93FF938091DA01909184
:10053000DB016FD6EC01182F8091C80085FF03C046
:10054000CE019927A2D61D3001F58DE991E04ADE52
:1005500010929401EDE9F1E080E2DF011D928A95AD
:10056000E9F7FF91EF91DF91CF91BF91AF919F910B
:100570008F917F916F915F914F913F912F911F913B
:100580000F900FBE0F901F9018951A3051F3E09105
:100590009401E03230F781E08E0F80939401F0E017
:1005A000E356FE4FC083DDCF84B7877F84BF0FB68D
:1005B000F894A89580916000886180936000109203
:1005C00060000FBE80E890E00FB6F8948093610061
:1005D000909361000FBE51C30895089542E360EC0B
:1005E00082E089D242E361EC81E085C2DC0198E0DF
:1005F000E5E9F1E001900D929A95E1F70895CF9326
:10060000DF93CDB7DEB728970FB6F894DEBF0FBEE5
:10061000CDBF8091C501813059F0893001F1289614
:100620000FB6F894DEBF0FBECDBFDF91CF91089516
:100630008091C401813A99F7CE010196D7DF80916C
:10064000E800877F8093E80068E070E0CE010196C3
:1006500058D18091E8008B778093E800E0CF8091BB
:10066000C4018132E1F68091E800877F8093E80041
:1006700067E070E0CE010196A3D18091E8008E770B
:10068000EBCFCF93DF93CDB7DEB728970FB6F894B3
:10069000DEBF0FBECDBF8091C301843069F582E01B
:1006A0008093E9008091E80082FF10C08091E8000B
:1006B00085FF07C050E040E067E070E0CE010196A2
:1006C000D2D08091E8008B778093E80081E080931E
:1006D000E9008091E80080FF0FC0CE01019686DF1F
:1006E00050E040E068E070E0CE0101966ED080916D
:1006F000E8008E778093E80028960FB6F894DEBF66
:100700000FBECDBFDF91CF91089587E690E0909323
:10071000CD008093CC0086E08093CA001092C80080
:1007200088E18093C900539A5A9A90E080E01BD5E3
:1007300078948091C90080688093C90047DD34DFD8
:1007400078949FDFDAD4FDCF292F3327233031056A
:1007500021F158F42130310599F022303105C1F0F2
:1007600090E080E030E020E00FC02132310541F11F
:1007700022323105A9F786E590E02BE331E004C091
:1007800082E190E029E231E0FA013183208308958B
:1007900089E290E020E031E0F7CF992781309105A0
:1007A00061F028F00297E1F6E8EBF0E002C0ECEF30
:1007B000F0E0849190E09F01E7CFEEEDF0E0F9CF1B
:1007C00089E090E022E131E0DFCFAF92BF92CF929B
:1007D000DF92FF920F931F93CF93DF936C01EB0196
:1007E0008A01DCD1F82E811124C00115110539F0E0
:1007F000F80180819181C81BD90BC80ED91EB12C7C
:10080000A12C2097B1F08091E80085FD22C0809155
:10081000E8008E778093E80070D401151105A1F0EF
:10082000F80180819181A80EB91EB182A08285E075
:10083000F82E8F2DDF91CF911F910F91FF90DF90B8
:10084000CF90BF90AF900895A9D18823D1F2F82E10
:10085000F0CFF60181916F018093F1002197FFEFB6
:10086000AF1ABF0ACECFAF92BF92CF92DF92FF9264
:100870000F931F93CF93DF936C01EB018A018ED10D
:10088000F82E811124C00115110539F0F80180817D
:100890009181C81BD90BC80ED91EB12CA12C209751
:1008A000B1F08091E80085FD22C08091E8008B774F
:1008B0008093E80022D401151105A1F0F801808190
:1008C0009181A80EB91EB182A08285E0F82E8F2DED
:1008D000DF91CF911F910F91FF90DF90CF90BF904C
:1008E000AF9008955BD18823D1F2F82EF0CF80919C
:1008F000F100F60181936F012197FFEFAF1ABF0A54
:10090000CECFFC018091CA019091CB018617970749
:10091000A0F06115710529F49091E8009E779093FD
:10092000E80090E06115710551F4911108C08091C3
:10093000E80082FF35C080E00895BC01F2CF8091CD
:10094000C3018823C9F18530C9F18091E80083FD96
:1009500031C08091E80082FDEACF8091E80080FFFD
:10096000E1CF2091F3008091F200322F282F611502
:10097000710519F02034310558F091E0203431052B
:1009800009F090E02091E8002E772093E800CACF8C
:1009900081918093F100615071092F5F3F4FE7CF44
:1009A0008091C301882341F0853041F08091E800B7
:1009B00083FFBDCF81E0089582E0089583E008952C
:1009C000FC016115710529F49091E8009B779093E3
:1009D000E8006115710531F48091E80080FF1FC0C7
:1009E00080E008958091C301882319F18530E9F0F2
:1009F0008091E80083FD1BC08091E80082FFE9CF71
:100A00002091F3008091F200322F282F232BE1F266
:100A10008091F10081936150710991F7D5CF809158
:100A2000C301882331F08530B9F683E0089581E071
:100A3000089582E00895FC018091CA019091CB0154
:100A400086179707A0F06115710529F48091E800D9
:100A50008E778093E80090E06115710551F4911153
:100A600008C08091E80082FF36C080E00895BC0194
:100A7000F2CF8091C3018823D1F18530D1F18091EB
:100A8000E80083FD32C08091E80082FDEACF8091CA
:100A9000E80080FFE1CF2091F3008091F200322F37
:100AA000282F6115710519F02034310558F091E0B7
:100AB0002034310509F090E08091E8008E77809332
:100AC000E800CACF84918093F1003196615071099A
:100AD0002F5F3F4FE6CF8091C301882341F08530DF
:100AE00041F08091E80083FFBCCF81E0089582E06F
:100AF000089583E00895982F973028F08F708093A1
:100B0000E90081E008959093E900242F762F50E0CA
:100B1000981731F07091EC002091ED005091F000A9
:100B200021FD02C09F5FE8CF3091EB003E7F309304
:100B3000EB003091ED003D7F3093ED003091EB0004
:100B400031603093EB007093EC002093ED005093F4
:100B5000F0002091EE0027FDE5CF80E00895809120
:100B6000C40187FF13C08091E80082FF06C0809116
:100B7000E8008B778093E80004C08091C301811165
:100B8000F2CF08958091C3018823D9F38091E800C2
:100B900080FFF8CF8091E8008E77ECCF2091E400C1
:100BA0003091E50085E69091EC0090FF06C09091B1
:100BB000E80090FF06C080E008959091E80092FD63
:100BC000FACF9091C301992391F0953091F09091D3
:100BD000EB0095FD10C04091E4005091E500241712
:100BE000350709F381509A01F1F684E0089582E017
:100BF000089583E0089581E008950F931F93CF93A4
:100C0000DF934BD052D0C8EDD0E088818F778883B6
:100C100088818068888388818F7D888319BC109241
:100C2000C3011092BF011092C1011092C00100EEE9
:100C300010E0F80180818B7F8083888181608883C8
:100C400042E360E080E057DFE1EEF0E080818E7FFC
:100C50008083E2EEF0E08081816080838081886023
:100C60008083F80180818E7F808388818061888382
:100C7000DF91CF911F910F910895E8EDF0E0808111
:100C80008F7E8083E7EDF0E080818160808384E067
:100C900082BF81E08093C201B0CFE8EDF0E08081B7
:100CA0008E7F80831092E20008951092DA001092F5
:100CB000E10008951F920F920FB60F9211242F9307
:100CC0003F934F935F936F937F938F939F93AF93D4
:100CD000BF93EF93FF938091E10082FF0AC0809160
:100CE000E20082FF06C08091E1008B7F8093E100EB
:100CF00003D28091DA0080FF18C08091D80080FF75
:100D000014C08091DA008E7F8093DA008091D90040
:100D100080FF8AC080E189BD82E189BD09B400FEFF
:100D2000FDCF81E08093C30157DC8091E10080FF1B
:100D300018C08091E20080FF14C08091E2008E7F95
:100D40008093E2008091E20080618093E2008091D4
:100D5000D80080628093D80019BC85E08093C301DD
:100D6000CBD18091E10084FF28C08091E20084FF14
:100D700024C080E189BD82E189BD09B400FEFDCFB8
:100D80008091D8008F7D8093D8008091E1008F7E84
:100D90008093E1008091E2008F7E8093E200809159
:100DA000E20081608093E2008091BF01882309F412
:100DB00040C084E08093C3019FD18091E10083FF14
:100DC00022C08091E20083FF1EC08091E100877FF6
:100DD0008093E10082E08093C3011092BF01809173
:100DE000E1008E7F8093E1008091E2008E7F80930E
:100DF000E2008091E20080618093E20042E360E0E3
:100E000080E079DE79D1FF91EF91BF91AF919F9111
:100E10008F917F916F915F914F913F912F910F90A3
:100E20000FBE0F901F90189519BC1092C301D5DB0F
:100E30007CCF8091E30087FD02C081E0BBCF83E0DF
:100E4000B9CF1F93CF93DF93CDB7DEB7AA970FB675
:100E5000F894DEBF0FBECDBFE4ECF1E08091F1006D
:100E6000819321E0EC3CF207C9F7C9DB8091E800EF
:100E700083FF10C08091C4019091C501953009F4A1
:100E8000D8C000F5913009F48BC008F461C09330EC
:100E900009F486C08091E80083FF0AC08091E800D1
:100EA000877F8093E8008091EB0080628093EB0065
:100EB000AA960FB6F894DEBF0FBECDBFDF91CF91DB
:100EC0001F910895983009F4ECC0993009F4F6C0E8
:100ED000963001F780588230E8F68091C6019091F3
:100EE000C7018C3D23E0920709F0C6C083E08A83E6
:100EF0008AE289834FB7F894DE01139620E03EE042
:100F000051E2E32FF0E050935700E49120FF03C03B
:100F1000E295EF703F5FEF708E2F90E0EA3008F4BB
:100F2000A9C0C7968D939D932F5F243151F74FBF72
:100F30008091E800877F8093E8006AE270E0CE014C
:100F40000196DFDC8091E8008B778093E800A2CFE8
:100F5000803899F0823809F09DCF8091C8018F7058
:100F6000873008F097CF8093E9008091EB0085FBF4
:100F7000882780F91092E90006C08091C001909105
:100F8000C101911182609091E800977F9093E800F1
:100F90008093F1001092F1008091E8008E7732C0CA
:100FA000282F2D7F09F076CF8823E9F0823009F0D1
:100FB00071CF8091C601811120C08091C8018F70CE
:100FC0002FEF280F263008F065CF8093E90020919D
:100FD000EB0020FF12C09330C9F48091EB008062D7
:100FE0008093EB000AC08091C601813009F052CF96
:100FF000933009F080E08093C1011092E900809164
:10100000E800877F8093E800AADD44CF9091EB0051
:1010100090619093EB0021E030E001C0220F8A95AF
:10102000EAF72093EA001092EA008091EB008860D2
:10103000D7CF81112FCF1091C6011F778091E30088
:101040008078812B8093E3008091E800877F8093F4
:10105000E80085DD8091E80080FFFCCF8091E3000F
:1010600080688093E30083E0111101C082E08093E7
:10107000C30110CFC09656CF6091C8017091C901CD
:10108000AE014F5F5F4F60DBBC01892B09F402CFDB
:101090009091E800977F9093E80089819A81CBDC5A
:1010A00051CF803809F0F6CE8091E800877F809399
:1010B000E8008091BF018093F1006ECF8111EACEEC
:1010C0009091C601923008F0E5CE8091E800877FCC
:1010D0008093E8009093BF0142DD8091BF01882397
:1010E00029F084E08093C30179DAD4CE8091E300C3
:1010F00087FDF7CF81E0F6CF0895CF938091C301AC
:10110000882391F0C091E900CF708091EC0080FDC0
:101110000DC080E0C82B1092E9008091E80083FDAB
:1011200090DECF70C093E900CF91089580E8F2CFB0
:101130009091C80095FFFCCF8093CE0090E080E0B6
:1011400008958091C80087FF08C08091C80087FF7C
:1011500007C08091CE0090E008958EEF9FEF089534
:101160008FEF9FEF0895FC01892B59F48CEC91E0EF
:101170009093DB018093DA019093DD018093DC0191
:10118000FC018EE0DF011D928A95E9F783E08383FD
:1011900088E998E09187808781EA98E09387828741
:1011A0000895FC0188279927E89421912032E9F3DA
:1011B000293010F02E30C8F32B3239F02D3231F4B3
:1011C000689403C01ED0820F911D219120532A30B4
:1011D000C8F31EF4909581959F4F0895FB01DC01A3
:1011E0008D9181341CF08B350CF4805E61916134FB
:1011F0001CF06B350CF4605E861B611189F3990B52
:1012000008957AE0979F902D879F802D910D11244E
:101210000895CF93DF93EC012B8120FF1AC026FFA6
:101220000CC02F7B2B838E819F8101969F838E83A1
:101230008A8190E0DF91CF91089522FF18C0E88164
:10124000F9818081082E000C990B009729F4206207
:101250002B838FEF9FEFEECF3196F983E8832E81BA
:101260003F812F5F3F4F3F832E839927E3CFEA854E
:10127000FB85099597FFF3CF2B81019621F080E242
:10128000822B8B83E6CF80E1FBCF6091DC017091F4
:10129000DD019AC2AEE0B0E0EFE4F9E0F0C285E033
:1012A0008C838B899C899A838983AE01495E5F4FC9
:1012B0006D897E89CE0101967FD12E96E2E0FBC238
:1012C00020FD09C0FC0123FD05C022FF02C073837D
:1012D000628351834083089544FD17C046FD1DC0BD
:1012E000DB01FC01AA0FBB1FEE1FFF1F1094D1F7FB
:1012F0006A0F7B1F8E1F9F1F660F771F881F991F06
:10130000620F711D811D911D089533E0660F771FD7
:10131000881F991F3150D1F7F3CF34E0F7CF0F93E7
:101320001F93CF93DF938C01C80173DFEC0197FD0E
:1013300006C037D2892BC1F7B801CE0175D2CE01D4
:10134000DF91CF911F910F9108958F929F92AF924D
:10135000BF92EF92FF920F931F93CF93DF938C0175
:10136000D62F7A01B22E55DF9C0133272B3231055F
:1013700029F02D323105A1F46894B7F8D15061F409
:1013800080E0DF91CF911F910F91FF90EF90BF9080
:10139000AF909F908F900895C8013BDF97FDF0CFED
:1013A000CB2DCD7F2B2D2073E9F48033D9F4AA24E3
:1013B000AA94AD0E79F0C8012CDF97FD0BC0282F41
:1013C0002F7D283559F4C264D25021F0C80121DFA5
:1013D00097FF08C0812C912C54011AC0B6FE29C079
:1013E000C260DA2D812C912C540120ED280F283079
:1013F00018F1C4FD09C02A30F8F0C6FF05C02F7DE2
:101400003FEE320F3630B8F0B8010ED2C1FFB8CF80
:10141000C7FF08C0B094A09490948094811C911C44
:10142000A11CB11C2C2FB501A401C70149DF81E02B
:10143000A8CFC261D6CF27504C2FC501B4014CDFD5
:101440004B015C01C260D15019F3C801E2DE97FF85
:10145000CCCFDCCFA0E2B0E0EFE2FAE005C25C0165
:10146000962E7A01CE0101966C0180E2F60111926E
:101470008A95E9F7F501B381890130E020E0712C0C
:10148000812CA0E041E050E0F801B3FD8591B3FF6D
:101490008191982F8F01811106C010E000E0C801F2
:1014A000A096EDE0FDC18E3519F42115310541F10D
:1014B000A21713064CF48D3549F18D3229F48110B1
:1014C00006C0882483941DC0882009F462C0E92FD7
:1014D000E695E695E695EC0DFD2DF11D892F8770BB
:1014E000BA0101C0660F8A95EAF78081682B608394
:1014F000791651F0971510F49F5FE9CF9150E7CF1F
:10150000A1E02F5F3F4FC0CF812CFBCF882019F087
:101510008E8180628E83AA2359F0F6019E012F5D91
:101520003F4F8081809580833196E217F307C9F79A
:1015300088248394C5016DDE97FD15C0E82FE695DC
:10154000E695E695EC0DFD2DF11D208130E0AC0116
:101550004770552702C0359527954A95E2F720FD3B
:1015600005C0B50161D1882069F097CFE114F1047D
:1015700029F0F7018083C70101967C019A94812CA0
:101580009110D8CFE114F10409F489CFF70110824A
:1015900086CFE82FE695E695E695EC0DFD2DF11D3D
:1015A000982F9770BA0101C0660F9A95EAF790815B
:1015B000692B6083782EA5CFB0E0A0E0E1EEFAE0E1
:1015C00051C16C01EB015A01FC0117821682512CAA
:1015D000F601E380FE01E3FC8591E3FE8191182F83
:1015E000EF018823C9F090E0DCD0892B19F0C60107
:1015F00096DEEECF153241F4FE01E3FC1591E3FED9
:101600001191EF01153259F4C60103DE97FD88C030
:101610001817F1F2B60108D1852D90E085C000E0E1
:101620001A3231F4E3FC1591E3FE1191EF0101E070
:10163000F12C20ED210F2A3038F101FF34C0FF20BA
:1016400059F3183699F11C3609F43AC0112321F3E5
:10165000612F70E08CEA90E0ACD0892BE9F2912CFC
:10166000812C00FD06C0F50180809180C5010296A5
:101670005C011E3669F5F6014681578170E060E035
:10168000202FC4011DDEA4CF02606F2D70E090E01A
:1016900080E040E221DEF62EFE01E3FC1591E3FE40
:1016A0001191EF01C6CFFF24FA94CBCFFE01E3FCEA
:1016B0001591E3FE1191EF01183609F0C7CF0860CC
:1016C0000460FE01E3FC1591E3FE1191EF01BECF32
:1016D0001336B9F401FD02C0FF24F394C60199DD6D
:1016E00097FD1EC08114910429F0F4018083C40188
:1016F00001964C01FA94F110F1CF00FD69CF53949B
:1017000067CF1B35A9F49E01A4016F2DC601A2DE8F
:10171000EC01892B91F7F6018381807309F47CCF6A
:101720008FEF9FEF511078CFCDB7DEB7EFE0B6C0A7
:10173000C601F5DD97FDF4CF1F3689F130F414367C
:1017400041F0193639F0006405C01337B1F0153790
:10175000D1F70062202FA4016F2DC601F6DD8111A3
:10176000CCCFD9CF8114910429F0F4016082C40157
:1017700001964C01FA94FF2059F0C6014ADD3C0164
:1017800097FD06C00ED0892B69F3B601C3014CD07A
:101790008114910409F4B1CFF4011082AECF00613D
:1017A000D9CF911159C0803219F089508550D0F7A6
:1017B0000895FC010590061621F00020D9F7C0011C
:1017C00008953197CF0108950F931F93CF93DF931F
:1017D000182F092FEB018B8181FD09C01FEF0FEF3F
:1017E000812F902FDF91CF911F910F91089582FF4C
:1017F00014C02E813F818C819D81281739073CF4CC
:10180000E881F981CF0101969983888310838E81C5
:101810009F8101969F838E83E3CFE885F985812F91
:101820000995892BA1F3DACFFB01238120FF11C099
:1018300026FD0FC08F3F980771F082832F7D2064B3
:1018400023832681378121503109378326839927C5
:1018500008958FEF9FEF08959927882708952F9275
:101860003F924F925F926F927F928F929F92AF9230
:10187000BF92CF92DF92EF92FF920F931F93CF937D
:10188000DF93CDB7DEB7CA1BDB0B0FB6F894DEBF14
:101890000FBECDBF09942A88398848885F846E843A
:1018A0007D848C849B84AA84B984C884DF80EE8084
:1018B000FD800C811B81AA81B981CE0FD11D0FB68D
:1018C000F894DEBF0FBECDBFED010895F894FFCFB1
:1018D00006257320257300427574746F6E004C5892
:1018E000004C5900525800525900484154004200DF
:1018F00041005A4C005A52004D494E555300504C2D
:101900005553004C434C49434B0052434C49434BC5
:1019100000484F4D450043415054555245004D49F4
:101920004E004D415800544F5000544F505F5249A3
:1019300047485400424F54544F4D5F524947485412
:1019400000424F54544F4D00424F54544F4D5F4C42
:1019500045465400544F505F4C4546540043454E55
:041960005445520098
:00000001FF
