:10000000ACC00000C6C00000C4C00000C2C00000F8
:10001000C0C00000BEC00000BCC00000BAC00000EC
:10002000B8C00000B6C00000B4C0000007C60000A1
:10003000B0C00000AEC00000ACC00000AAC000000C
:10004000A8C00000A6C00000A4C00000A2C000001C
:10005000A0C000009EC000009CC0000035C200008F
:1000600098C0000096C0000094C0000092C000003C
:1000700090C000006364696E6F70737578585B00A0
:10008000240350004F004B004B0045004E00200061
:1000900043004F004E00540052004F004C004C00F3
:1000A0004500520000001C0348004F005200490068
:1000B000200043004F002E002C004C005400440050
:1000C0002E00000004030904090229000101008038
:1000D000FA090400000203000000092111010001D7
:1000E0002256000705020340000507058103400072
:1000F0000512010002000000400D0F9200000101F6
:1001000002000105010905A1011500250135004581
:1001100001750195100509190129108102050125B4
:1001200007463B0175049501651409398142650054
:100130009501810126FF0046FF000930093109328F
:1001400009357508950481020600FF092095018193
:10015000020A212695089102C00011241FBECFEF8C
:10016000D2E0DEBFCDBF11E0A0E0B1E0E6E1F8E112
:1001700002C005900D92A439B107D9F721E0A4E996
:10018000B1E001C01D92A03EB207E1F7A1D20C94EC
:10019000090C36CFE5E9F1E01182108280E8838313
:1001A00084838583868388E082830895EF92FF921B
:1001B0000F931F93CF93DF93CDB7DEB768970FB63A
:1001C000F894DEBF0FBECDBF8E010F5F1F4F1F9390
:1001D0000F937E0121E1E20EF11CFF92EF9221E0EC
:1001E00031E03F932F939F938F93F7D767E071E0B0
:1001F000C70195D70FB6F894DEBF0FBECDBF892BD0
:1002000059F41092000162E171E0C80188D7892B8E
:1002100079F581E090E034C06EE071E0C7017FD7EE
:10022000892B21F481E080930001EDCF61E171E041
:10023000C70175D7892B11F482E0F5CF64E171E035
:10024000C7016DD7892B11F483E0EDCF67E171E031
:10025000C70165D7892B11F484E0E5CF6AE171E02D
:10026000C7015DD7892B11F485E0DDCF86E0DBCFB8
:100270006EE171E0C80153D7892BA9F482E090E0C8
:100280009093BE018093BD0180910001823009F4FA
:100290000CC108F0DFC0882309F4E7C0813009F4FD
:1002A000FFC078DFF0C060E271E0C80138D7892B69
:1002B00019F484E090E0E4CF64E571E0C8012FD741
:1002C000892B19F488E090E0DBCF63E271E0C8018C
:1002D00026D7892B19F480E190E0D2CF62E971E052
:1002E000C8011DD7892B19F480E290E0C9CF62E2E2
:1002F00071E0C80114D7892B19F480E490E0C0CFD5
:1003000065E271E0C8010BD7892B19F480E890E011
:10031000B7CF68E271E0C80102D7892B19F480E0F9
:1003200091E0AECF6EE271E0C801F9D6892B19F4E5
:1003300080E092E0A5CF63E371E0C801F0D6892B9D
:1003400019F480E094E09CCF6AE371E0C801E7D63D
:10035000892B19F480E098E093CF61E471E0C80143
:10036000DED6892B19F480E090E18ACF66E471E053
:10037000C801D5D6892B19F480E090E281CF6EE4D4
:1003800071E0C801CCD6892B29F41092BE011092DD
:10039000BD017ACF62E571E0C801C1D6892B19F49D
:1003A0008FEF90E06DCFC8019DD6181619061CF48A
:1003B000C80198D665CF66E571E0C801B0D6892B33
:1003C00021F36AE571E0C801AAD6892B09F421CF8F
:1003D0006BE671E0C801A3D6892B09F44FCF64E620
:1003E00071E0C8019CD6892B19F483E090E048CFD6
:1003F00061E771E0C80193D6892B09F45ACF68E709
:1004000071E0C8018CD6892B19F485E090E038CFD3
:100410006FE771E0C80183D6892B19F486E090E07C
:100420002FCF64E871E0C8017AD6892B19F487E0F0
:1004300090E026CF6DE871E0C80171D6892B31F4C8
:1004400080910001853009F061CF3CCF86E0809338
:1004500000011ACF843099F168F1853009F021CF7D
:100460008091BD01809397010EC08091950190917C
:1004700096012091BD013091BE0182279327909370
:1004800096018093950168960FB6F894DEBF0FBE73
:10049000CDBFDF91CF911F910F91FF90EF90089505
:1004A0008091BD0180939801EECF8091BD01809332
:1004B0009901E9CF8091BD0180939A01E4CF8091A9
:1004C000BD0180939B01DFCF1F920F920FB60F9259
:1004D00011241F932F933F934F935F936F937F93B9
:1004E0008F939F93AF93BF93CF93DF93EF93FF933C
:1004F0008091DA019091DB012FD6EC01182F8091C9
:10050000C80085FF03C0CE01992762D61D3001F5D2
:100510008DE991E04BDE10929401EDE9F1E080E28B
:10052000DF011D928A95E9F7FF91EF91DF91CF915D
:10053000BF91AF919F918F917F916F915F914F91FB
:100540003F912F911F910F900FBE0F901F90189504
:100550001A3051F3E0919401E03230F781E08E0FD0
:1005600080939401F0E0E356FE4FC083DDCF84B763
:10057000877F84BF0FB6F894A8958091600088614A
:1005800080936000109260000FBE80E890E00FB68C
:10059000F89480936100909361000FBE40C308956A
:1005A000089542E360EC82E07FD242E361EC81E0B7
:1005B0007BC2DC0198E0E5E9F1E001900D929A95AB
:1005C000E1F70895CF93DF93CDB7DEB728970FB645
:1005D000F894DEBF0FBECDBF8091C501813059F0C8
:1005E000893001F128960FB6F894DEBF0FBECDBF5B
:1005F000DF91CF9108958091C401813A99F7CE019E
:100600000196D7DF8091E800877F8093E80068E05B
:1006100070E0CE01019658D18091E8008B778093ED
:10062000E800E0CF8091C4018132E1F68091E800DA
:10063000877F8093E80067E070E0CE010196A0D14B
:100640008091E8008E77EBCFCF93DF93CDB7DEB705
:1006500028970FB6F894DEBF0FBECDBF8091C301BF
:10066000843069F582E08093E9008091E80082FFA0
:1006700010C08091E80085FF07C050E040E067E0CF
:1006800070E0CE010196D2D08091E8008B77809304
:10069000E80081E08093E9008091E80080FF0FC0CE
:1006A000CE01019686DF50E040E068E070E0CE01C8
:1006B00001966ED08091E8008E778093E8002896AE
:1006C0000FB6F894DEBF0FBECDBFDF91CF91089576
:1006D00087E690E09093CD008093CC0086E08093F5
:1006E000CA001092C80088E18093C900539A5A9AB0
:1006F00090E080E0D9D478948091C900806880939C
:10070000C90048DD34DF78949FDF98D4FDCF292FCE
:1007100033272330310521F158F42130310599F088
:1007200022303105C1F090E080E030E020E00FC0E1
:100730002132310541F122323105A9F786E590E0F9
:1007400023E031E004C082E190E021EF30E0FA01E3
:1007500031832083089589E290E028EC30E0F7CFE0
:1007600099278130910561F028F00297E1F6E0E8E1
:10077000F0E002C0E4ECF0E0849190E09F01E7CF6C
:10078000E6EAF0E0F9CF89E090E02AED30E0DFCF53
:10079000AF92BF92CF92DF92FF920F931F93CF93AE
:1007A000DF936C01EB018A01D2D1F82E811124C0B4
:1007B0000115110539F0F80180819181C81BD90B11
:1007C000C80ED91EB12CA12C2097B1F08091E80061
:1007D00085FD22C08091E8008E778093E8002ED4BA
:1007E00001151105A1F0F80180819181A80EB91EB3
:1007F000B182A08285E0F82E8F2DDF91CF911F91DD
:100800000F91FF90DF90CF90BF90AF9008959FD150
:100810008823D1F2F82EF0CFF60181916F018093F9
:10082000F1002197FFEFAF1ABF0ACECFAF92BF9270
:10083000CF92DF92FF920F931F93CF93DF936C01C0
:10084000EB018A0184D1F82E811124C00115110514
:1008500039F0F80180819181C81BD90BC80ED91ECF
:10086000B12CA12C2097B1F08091E80085FD22C029
:100870008091E8008B778093E800E0D301151105A3
:10088000A1F0F80180819181A80EB91EB182A082E9
:1008900085E0F82E8F2DDF91CF911F910F91FF9062
:1008A000DF90CF90BF90AF90089551D18823D1F2BF
:1008B000F82EF0CF8091F100F60181936F0121971E
:1008C000FFEFAF1ABF0ACECFFC018091CA01909111
:1008D000CB0186179707A0F06115710529F4909157
:1008E000E8009E779093E80090E06115710551F45F
:1008F000911108C08091E80082FF32C080E0089525
:10090000BC01F2CF8091C3018823B1F18530B1F1F0
:100910008091E80083FD2EC08091E80082FDEACF3F
:100920008091E80080FFE1CF2091F20030E0611576
:10093000710519F02034310558F091E0203431056B
:1009400009F090E02091E8002E772093E800CDCFC9
:1009500081918093F100615071092F5F3F4FE7CF84
:100960008091C301882341F0853041F08091E800F7
:1009700083FFC0CF81E0089582E0089583E0089569
:10098000FC016115710529F49091E8009B77909323
:10099000E8006115710531F48091E80080FF1BC00B
:1009A00080E008958091C3018823F9F08530C9F073
:1009B0008091E80083FD17C08091E80082FFE9CFB5
:1009C0008091F200882301F38091F10081936150BE
:1009D0007109B1F7D9CF8091C301882331F08530F7
:1009E000D9F683E0089581E0089582E00895FC013E
:1009F0008091CA019091CB0186179707A0F06115ED
:100A0000710529F48091E8008E778093E80090E0EA
:100A10006115710551F4911108C08091E80082FFC1
:100A200033C080E00895BC01F2CF8091C3018823D8
:100A3000B9F18530B9F18091E80083FD2FC0809134
:100A4000E80082FDEACF8091E80080FFE1CF2091AD
:100A5000F20030E06115710519F02034310558F0CD
:100A600091E02034310509F090E08091E8008E7724
:100A70008093E800CDCF84918093F100319661504E
:100A800071092F5F3F4FE6CF8091C301882341F06A
:100A9000853041F08091E80083FFBFCF81E0089569
:100AA00082E0089583E00895982F953028F08F70A4
:100AB0008093E90081E008959093E900242F762F38
:100AC00050E0981731F07091EC002091ED005091BA
:100AD000F00021FD02C09F5FE8CF3091EB003E7F28
:100AE0003093EB003091ED003D7F3093ED0030917D
:100AF000EB0031603093EB007093EC002093ED003D
:100B00005093F0002091EE0027FDE5CF80E008959E
:100B10008091C40187FF13C08091E80082FF06C066
:100B20008091E8008B778093E80004C08091C30136
:100B30008111F2CF08958091C3018823D9F3809168
:100B4000E80080FFF8CF8091E8008E77ECCF20910D
:100B5000E4003091E50085E69091EC0090FF06C03E
:100B60009091E80090FF06C080E008959091E80021
:100B700092FDFACF9091C301992391F0953091F0B5
:100B80009091EB0095FD10C04091E4005091E5007C
:100B90002417350709F381509A01F1F684E008958E
:100BA00082E0089583E0089581E0089541D043D024
:100BB0008091D8008F778093D8008091D80080688A
:100BC0008093D8008091D8008F7D8093D80084E0F6
:100BD00089BD86E089BD09B400FEFDCF1092C30136
:100BE0001092BF011092C1011092C00142E360E077
:100BF00080E05ADF8091E1008E7F8093E100809158
:100C0000E20081608093E2008091E200886080933E
:100C1000E2008091E0008E7F8093E0000895E3E69B
:100C2000F0E080818E7F808381E08093C201BECF1F
:100C30001092E20008951092E10008951F920F9221
:100C40000FB60F9211242F933F934F935F936F939F
:100C50007F938F939F93AF93BF93EF93FF93809175
:100C6000E10082FF0AC08091E20082FF06C080910D
:100C7000E1008B7F8093E100E0D18091E10080FF73
:100C800017C08091E20080FF13C08091E2008E7F48
:100C90008093E2008091E20080618093E200809185
:100CA000D80080628093D80019BC1092C30178DC10
:100CB0008091E10084FF27C08091E20084FF23C07F
:100CC00084E089BD86E089BD09B400FEFDCF809136
:100CD000D8008F7D8093D8008091E1008F7E809333
:100CE000E1008091E2008F7E8093E2008091E2003B
:100CF00081608093E2008091BF018823D9F184E074
:100D00008093C3014CDC8091E10083FF22C080917D
:100D1000E20083FF1EC08091E100877F8093E100A5
:100D200082E08093C3011092BF018091E1008E7F29
:100D30008093E1008091E2008E7F8093E2008091B9
:100D4000E20080618093E20042E360E080E0ACDE9C
:100D500074D1FF91EF91BF91AF919F918F917F914E
:100D60006F915F914F913F912F910F900FBE0F9018
:100D70001F9018958091E30087FD02C081E0C0CFED
:100D800083E0BECF1F93CF93DF93CDB7DEB7AA9793
:100D90000FB6F894DEBF0FBECDBFE4ECF1E080915A
:100DA000F100819321E0EC3CF207C9F70BDC809164
:100DB000E80083FF10C08091C4019091C501953077
:100DC00009F4D8C000F5913009F48BC008F461C073
:100DD000933009F486C08091E80083FF0AC08091B7
:100DE000E800877F8093E8008091EB008062809329
:100DF000EB00AA960FB6F894DEBF0FBECDBFDF9111
:100E0000CF911F910895983009F4ECC0993009F4FE
:100E1000F6C0963001F780588230E8F68091C6011E
:100E20009091C7018C3D23E0920709F0C6C083E092
:100E30008A838AE289834FB7F894DE01139620E013
:100E40003EE051E2E32FF0E050935700E49120FFA1
:100E500003C0E295EF703F5FEF708E2F90E0EA30B5
:100E600008F4A9C0C7968D939D932F5F243151F745
:100E70004FBF8091E800877F8093E8006AE270E0CE
:100E8000CE01019621DD8091E8008B778093E80008
:100E9000A2CF803899F0823809F09DCF8091C801A7
:100EA0008F70853008F097CF8093E9008091EB0038
:100EB00085FB882780F91092E90006C08091C00167
:100EC0009091C101911182609091E800977F909379
:100ED000E8008093F1001092F1008091E8008E7795
:100EE00032C0282F2D7F09F076CF8823E9F0823099
:100EF00009F071CF8091C601811120C08091C80195
:100F00008F702FEF280F243008F065CF8093E90011
:100F10002091EB0020FF12C09330C9F48091EB00C8
:100F200080628093EB000AC08091C601813009F095
:100F300052CF933009F080E08093C1011092E90014
:100F40008091E800877F8093E800E2DD44CF9091B4
:100F5000EB0090619093EB0021E030E001C0220FA4
:100F60008A95EAF72093EA001092EA008091EB005C
:100F70008860D7CF81112FCF1091C6011F77809144
:100F8000E3008078812B8093E3008091E800877FE5
:100F90008093E800BDDD8091E80080FFFCCF809168
:100FA000E30080688093E30083E0111101C082E0D8
:100FB0008093C30110CFC09656CF6091C801709145
:100FC000C901AE014F5F5F4FA2DBBC01892B09F461
:100FD00002CF9091E800977F9093E80089819A81F1
:100FE00006DD51CF803809F0F6CE8091E800877F8A
:100FF0008093E8008091BF018093F1006ECF811152
:10100000EACE9091C601923008F0E5CE8091E800DA
:10101000877F8093E8009093BF017ADD8091BF01C4
:10102000882329F084E08093C301BBDAD4CE809179
:10103000E30087FDF7CF81E0F6CF0895CF9380914D
:10104000C301882391F0C091E900CF708091EC003A
:1010500080FD0DC080E0C82B1092E9008091E8006F
:1010600083FD90DECF70C093E900CF91089580E8B2
:10107000F2CF9091C80095FFFCCF8093CE0090E016
:1010800080E008958091C80087FF08C08091C80063
:1010900087FF07C08091CE0090E008958EEF9FEF0C
:1010A00008958FEF9FEF0895FC01892B59F48CEC84
:1010B00091E09093DB018093DA019093DD018093BE
:1010C000DC01FC018EE0DF011D928A95E9F783E0E7
:1010D000838389E398E09187808782E498E093870F
:1010E00082870895FC0188279927E894219120326E
:1010F000E9F3293010F02E30C8F32B3239F02D32BD
:1011000031F4689403C01ED0820F911D21912053A9
:101110002A30C8F31EF4909581959F4F0895FB01E6
:10112000DC018D9181341CF08B350CF4805E619173
:1011300061341CF06B350CF4605E861B611189F321
:10114000990B0895BC01880F991F880F991F860F6E
:10115000971F880F991F0895CF93DF93EC012B8180
:1011600020FF1AC026FF0CC02F7B2B838E819F810E
:1011700001969F838E838A8190E0DF91CF910895BD
:1011800022FF18C0E881F9818081082E000C990B9C
:10119000009729F420622B838FEF9FEFEECF3196DB
:1011A000F983E8832E813F812F5F3F4F3F832E835A
:1011B0009927E3CFEA85FB85099597FFF3CF2B812C
:1011C000019621F080E2822B8B83E6CF80E1FBCF7A
:1011D0006091DC017091DD019AC2AEE0B0E0E2EF17
:1011E000F8E0F0C285E08C838B899C899A8389839F
:1011F000AE01495E5F4F6D897E89CE0101967FD138
:101200002E96E2E0FBC220FD09C0FC0123FD05C0D3
:1012100022FF02C07383628351834083089544FD9B
:1012200017C046FD1DC0DB01FC01AA0FBB1FEE1F4E
:10123000FF1F1094D1F76A0F7B1F8E1F9F1F660F31
:10124000771F881F991F620F711D811D911D0895C1
:1012500033E0660F771F881F991F3150D1F7F3CF06
:1012600034E0F7CF0F931F93CF93DF938C01C80126
:1012700073DFEC0197FD06C037D2892BC1F7B801A7
:10128000CE0175D2CE01DF91CF911F910F910895BC
:101290008F929F92AF92BF92EF92FF920F931F9304
:1012A000CF93DF938C01D62F7A01B22E55DF9C01AC
:1012B00033272B32310529F02D323105A1F4689402
:1012C000B7F8D15061F480E0DF91CF911F910F9179
:1012D000FF90EF90BF90AF909F908F900895C801BE
:1012E0003BDF97FDF0CFCB2DCD7F2B2D2073E9F485
:1012F0008033D9F4AA24AA94AD0E79F0C8012CDF6A
:1013000097FD0BC0282F2F7D283559F4C264D25089
:1013100021F0C80121DF97FF08C0812C912C5401D6
:101320001AC0B6FE29C0C260DA2D812C912C54015E
:1013300020ED280F283018F1C4FD09C02A30F8F03C
:10134000C6FF05C02F7D3FEE320F3630B8F0B80132
:101350000ED2C1FFB8CFC7FF08C0B094A09490943C
:101360008094811C911CA11CB11C2C2FB501A401DF
:10137000C70149DF81E0A8CFC261D6CF27504C2FEB
:10138000C501B4014CDF4B015C01C260D15019F3BF
:10139000C801E2DE97FFCCCFDCCFA0E2B0E0E2ED07
:1013A000F9E005C25C01962E7A01CE0101966C012E
:1013B00080E2F60111928A95E9F7F501B38189017E
:1013C00030E020E0712C812CA0E041E050E0F801F9
:1013D000B3FD8591B3FF8191982F8F01811106C0D4
:1013E00010E000E0C801A096EDE0FDC18E3519F4D3
:1013F0002115310541F1A21713064CF48D3549F141
:101400008D3229F4811006C0882483941DC0882061
:1014100009F462C0E92FE695E695E695EC0DFD2D01
:10142000F11D892F8770BA0101C0660F8A95EAF70E
:101430008081682B6083791651F0971510F49F5FB7
:10144000E9CF9150E7CFA1E02F5F3F4FC0CF812C74
:10145000FBCF882019F08E8180628E83AA2359F0F9
:10146000F6019E012F5D3F4F8081809580833196EC
:10147000E217F307C9F788248394C5016DDE97FD51
:1014800015C0E82FE695E695E695EC0DFD2DF11DCE
:10149000208130E0AC014770552702C03595279573
:1014A0004A95E2F720FD05C0B50161D1882069F0B9
:1014B00097CFE114F10429F0F7018083C701019669
:1014C0007C019A94812C9110D8CFE114F10409F495
:1014D00089CFF701108286CFE82FE695E695E6954D
:1014E000EC0DFD2DF11D982F9770BA0101C0660F0C
:1014F0009A95EAF79081692B6083782EA5CFB0E0AA
:10150000A0E0E4E8FAE051C16C01EB015A01FC01F2
:1015100017821682512CF601E380FE01E3FC8591CF
:10152000E3FE8191182FEF018823C9F090E0DCD011
:10153000892B19F0C60196DEEECF153241F4FE017B
:10154000E3FC1591E3FE1191EF01153259F4C60148
:1015500003DE97FD88C01817F1F2B60108D1852D7A
:1015600090E085C000E01A3231F4E3FC1591E3FE0F
:101570001191EF0101E0F12C20ED210F2A3038F11B
:1015800001FF34C0FF2059F3183699F11C3609F4D5
:101590003AC0112321F3612F70E084E790E0ACD0D2
:1015A000892BE9F2912C812C00FD06C0F501808089
:1015B0009180C50102965C011E3669F5F6014681EF
:1015C000578170E060E0202FC4011DDEA4CF0260CF
:1015D0006F2D70E090E080E040E221DEF62EFE010B
:1015E000E3FC1591E3FE1191EF01C6CFFF24FA94BD
:1015F000CBCFFE01E3FC1591E3FE1191EF0118360C
:1016000009F0C7CF08600460FE01E3FC1591E3FE1A
:101610001191EF01BECF1336B9F401FD02C0FF24D2
:10162000F394C60199DD97FD1EC08114910429F041
:10163000F4018083C40101964C01FA94F110F1CFBA
:1016400000FD69CF539467CF1B35A9F49E01A40117
:101650006F2DC601A2DEEC01892B91F7F601838183
:10166000807309F47CCF8FEF9FEF511078CFCDB707
:10167000DEB7EFE0B6C0C601F5DD97FDF4CF1F364B
:1016800089F130F4143641F0193639F0006405C0A0
:101690001337B1F01537D1F70062202FA4016F2D59
:1016A000C601F6DD8111CCCFD9CF8114910429F088
:1016B000F4016082C40101964C01FA94FF2059F0B4
:1016C000C6014ADD3C0197FD06C00ED0892B69F3A7
:1016D000B601C3014CD08114910409F4B1CFF401D7
:1016E0001082AECF0061D9CF911159C0803219F06C
:1016F00089508550D0F70895FC010590061621F019
:101700000020D9F7C00108953197CF0108950F93B4
:101710001F93CF93DF93182F092FEB018B8181FD4E
:1017200009C01FEF0FEF812F902FDF91CF911F91F5
:101730000F91089582FF14C02E813F818C819D817D
:10174000281739073CF4E881F981CF010196998384
:10175000888310838E819F8101969F838E83E3CF40
:10176000E885F985812F0995892BA1F3DACFFB0153
:10177000238120FF11C026FD0FC08F3F980771F015
:1017800082832F7D20642383268137812150310974
:1017900037832683992708958FEF9FEF0895992720
:1017A000882708952F923F924F925F926F927F9277
:1017B0008F929F92AF92BF92CF92DF92EF92FF9261
:1017C0000F931F93CF93DF93CDB7DEB7CA1BDB0B0D
:1017D0000FB6F894DEBF0FBECDBF09942A883988B2
:1017E00048885F846E847D848C849B84AA84B984B9
:1017F000C884DF80EE80FD800C811B81AA81B981C5
:10180000CE0FD11D0FB6F894DEBF0FBECDBFED01D8
:061810000895F894FFCFDB
:1018160006257320257300427574746F6E004C584C
:10182600004C590052580052590048415400420099
:1018360041005A4C005A52004D494E555300504CE7
:101846005553004C434C49434B0052434C49434B80
:1018560000484F4D450043415054555245004D49AF
:101866004E004D415800544F5000544F505F52495E
:1018760047485400424F54544F4D5F5249474854CD
:1018860000424F54544F4D00424F54544F4D5F4CFD
:1018960045465400544F505F4C4546540043454E10
:0418A6005445520053
:00000001FF
